:020000040800F2
:10000000000700200902000811020008130200087E
:10001000150200081702000819020008000000007D
:100020000000000000000000000000001B020008AB
:100030001D020008000000001F0200082102000845
:100040002302000825020008270200080000000023
:100050000000000029020008AD2300082D0200085E
:100060002F020008000000003102000833020008DF
:1000700035020008000000003702000839020008BD
:100080003B0200083D020008000000003F0200089B
:100090004102000800000000000000000000000015
:1000A0000000000000000000000000004302000803
:1000B0004502000847020008490200084B020008F8
:1000C00000F002F800F090F80AA090E8000C8244DA
:1000D0008344AAF10107DA4501D100F085F8AFF2B7
:1000E000090EBAE80F0013F0010F18BFFB1A43F016
:1000F00001031847F437000014380000103A24BFF9
:1001000078C878C1FAD8520724BF30C830C144BF7C
:1001100004680C60704700000023002400250026BE
:10012000103A28BF78C1FBD8520728BF30C148BF5A
:100130000B6070476E2900F04981702900F07F82C2
:10014000662903F04783652903F04483672903F098
:100150004183612903F0408303681B0A28BF41F0F3
:100160008001692900F0F680642900F0F380752988
:1001700000F0F0806F2900F00D82782900F04B82AA
:10018000E92900F0A781E42900F0A481F52900F015
:10019000A181EF2900F00A82F82900F04A82036861
:1001A000DB0928BF41F08001632900F063877329D0
:1001B00000F06887E32900F07387F32900F078875F
:1001C000002070471FB500F0CDFF04000020002183
:1001D00003F010F8401C60600020002102F0F4FFE2
:1001E000E0601FBD10B510BD00F08EFF1146FFF797
:1001F000E9FF02F09FFB01F06BF803B4FFF7F2FF99
:1002000003BC01F0B3F800001348804713480047CF
:10021000FEE7FEE7FEE7FEE7FEE7FEE7FEE7FEE7B6
:10022000FEE7FEE7FEE7FEE7FEE7FEE7FEE7FEE7A6
:10023000FEE7FEE7FEE7FEE7FEE7FEE7FEE7FEE796
:10024000FEE7FEE7FEE7FEE7FEE7FEE704480549B6
:10025000054A064B70470000F51F0008C100000862
:100260000001002000070020000300200003002000
:100270000FB4044910B503AA029800F0BBF810BCF3
:100280005DF814FB6800002070477047704770B538
:10029000044685690068C10601D5302600E02026A5
:1002A000C00707D070BDD4E9012130469047206ACD
:1002B000401C20626D1EF6D570BD70B50446856980
:1002C0000078C00707D170BDD4E9012120209047F4
:1002D000206A401C20626D1EF6D570BD09684A0573
:1002E00001D540B27047C905FCD500B27047096816
:1002F0004A0501D5C0B27047C905FCD580B2704728
:1003000070B50C460546012A05D02878800600D530
:10031000EA69002302E0012305E05B1C934202D25C
:10032000E05C0028F9D1A869E618C01AA861286A1B
:10033000184428622846FFF7AAFF04E0D5E9012106
:1003400014F8010B9047B442F8D32846FFF7B5FFE5
:1003500070BD00002DE9F0410646002410687529A3
:10036000314616A510D0FFF7B9FF002802DA404247
:1003700013A507E031688A0701D512A502E04907F5
:1003800004D511A5012401E0FFF7B1FF00210A22E5
:1003900006F1240709E0B0FBF2FCB0FBF2F302FB2C
:1003A0001C00303078541846491C0028F3D12346ED
:1003B0002A463046BDE8F04100F055BA0000000082
:1003C0002D0000002B0000002000000011680268D2
:1003D000006A530501D508700AE0D30501D50880ED
:1003E00006E0130603D5C217C1E9000200E0086069
:1003F00001207047074B70B50D467B4400F01DFE91
:100400000446284600F058FE10B14FF0FF3070BD92
:10041000204670BDBF2200002DE9FF5F15468A46C9
:100420000446DFF8AC80F8440027D8E900103E46C7
:10043000CDE9001010E03AF816106A4602A800F064
:100440003FFE411C07D02178890603D5E26939189F
:1004500091420DD80744761C2078800602D5E069C9
:10046000B84205DDAE42E6DB3AF816000028E2D1DC
:10047000A069C01BA0612046FFF709FFD8E9001062
:10048000CDE90010002017E03AF818106A4602A8DB
:1004900000F016FEB0F1FF3F81460BD000250DF1B4
:1004A000080B05E0D4E901211BF8050090476D1CFD
:1004B0004D45F7D308F10100B0428046E4DB206AE5
:1004C000384420622046FFF7F8FEBDE8FF9F000099
:1004D000B23300002DE9F0418046D21D22F0070220
:1004E0000025D2E90002F52915A614D0011E72F1EB
:1004F000000106DA0023D0EB030063EB020211A631
:1005000008E0D8F800108B0701D50FA602E04907D4
:1005100001D50EA601251146002408F1240704E0A8
:1005200000F05CF930323A55641C50EA0102F7D110
:100530002B46324621464046BDE8F04100F093B9D3
:10054000000000002D0000002B0000002000000033
:1005500030B4002100F1240408E002F00705D208BD
:10056000303542EA4372DB086554491C52EA030500
:10057000F3D10468002310A2250708D504F0200455
:100580000C4304D0C46901230CA2641EC46130BCB6
:1005900000F069B910B5044621461068FFF7A7FEC0
:1005A00002462046BDE810400023D1E7D21D22F0CC
:1005B0000701D1E90023CBE7000000003000000074
:1005C000F0B40D460188090502D5214C7C4402E0B7
:1005D0001F4C7C440E34002100F1240608E002F098
:1005E0000F071209E75D42EA03721B097754491CA1
:1005F00052EA0307F3D102780023120704D5702DC5
:1006000006D009B1022311342246F0BC00F02BB908
:1006100001231034F8E770B504460D4621461068F2
:10062000FFF765FE024629462046BDE870400023DC
:10063000C6E7D21D22F00703D3E90023C0E7036811
:10064000126843F0200303600823C3610023B7E767
:10065000143200002DE9F05F894604464FF0000A8D
:10066000DFF874B1FB44C0F820A02046E168884759
:10067000002874D0252806D0D4E901219047206AAB
:10068000401C2062F1E700265F462046E16888476B
:100690002028054607DB312D05D2781910F8200CEB
:1006A00008B10643F1E7B00701D526F00406C4F807
:1006B0001CA00027C4F818A02A2D09D0284602F053
:1006C0007BFD38B304EB8708303DC8F8185019E0BB
:1006D00059F8041B204604EB87029161E1688847C2
:1006E000012F054618D1E069002820DA26F02006FF
:1006F0001DE0D8F8180000EB800005EB4000303812
:10070000C8F818002046E1688847054602F054FD05
:100710000028EED1012F0AD02E2D08D12046E16805
:1007200088477F1C0546022F46F02006C4DBA069DF
:10073000002803DA404246F00106A061F00701D02C
:1007400026F010066C2D0BD0682D09D04C2D39D019
:100750006A2D35D0742D35D07A2D33D016E038E09F
:10076000E1682F4620468847B842054609D16C2FDC
:1007700026D04FF48060E16806432046884705464E
:1007800004E06C2F1AD04FF4807006430DB3A5F12E
:100790004100192802D8203546F400664A46294609
:1007A000204626604E46FFF7C5FC80B101280BD0DD
:1007B000F61D26F0070000F1080956E74020E4E79F
:1007C0008020D8E70020D6E706F104094DE7284647
:1007D00052E7206ABDE8F09FA431000030B5B0F1C7
:1007E0000A0271F100034FEA900E4EEA817EB0EBEF
:1007F0000E0061EB91014FEA101E4EEA017E10EBF4
:100800000E0041EB11114FEA102E4EEA016E10EB73
:100810000E0041EB11214FEA104E4EEA014E10EB53
:100820000E0041EB1141401841F100014FEAD000A8
:1008300040EA41704FEAD1014FEA810444EA9074E2
:1008400010EB800544EB01046D1944EB0404521BCA
:10085000A3414FF0000348BF0A3200D530BD401C11
:1008600041F1000130BD2DE9F0470D469946924611
:10087000044600F124080168880604D5E06921F0E7
:100880001001216000E00120A84201DD471B00E0CB
:100890000027A1697A1902EB0900081AA0612078E3
:1008A000C00602D42046FFF7F2FC002608E0D4E997
:1008B00001211AF806009047206A401C761C20622D
:1008C0004E45F4DB2078C0060AD52046FFF7DFFC52
:1008D00006E0D4E9012130209047206A401C2062C4
:1008E000381EA7F10107F4DC07E0D4E9012118F86C
:1008F00005009047206A401C2062281EA5F10105D2
:10090000F3DC2046FFF7D9FC2078000602D5022050
:10091000BDE8F0870120FBE72DE9FF4F0C461E469E
:100920004FF0FF378BB0D2E90001DDF860800A900C
:100930008A46C1F30A5505B93D46002108464FF0E5
:100940000000BAF1000F00F4400005DA00EB80006F
:100950004FF4400101EA50004FEA9059B9F1010FFC
:1009600000DDB9460A9850EA4A000ED044F610500D
:10097000A5F2FF3545432F14B8F1000F1ED0754284
:10098000291E1EDDC9F100021CE0B8F1010F4FF075
:10099000000001D0302103E0F24305E02154401C67
:1009A000B042FBDB30460022002121540B99C1F8F4
:1009B0000880C1E900200FB0BDE8F08FBD1B6D1CA1
:1009C000DEE74A4600DA694206A800F00FFC06ABF3
:1009D00093E8070003AB83E8070050460A9902F04A
:1009E0000EF88DE80700A0F500501F38009003981E
:1009F000002D0ADD42F21F014A460844002303A9E4
:100A00000390684602F078FA09E0A0F500504A46E3
:100A10001F38002303A90390684602F082FA8DE88C
:100A200007000004000C03D04FF0FF30410800E045
:100A30001046B8F1000F03D00022009215461EE0C8
:100A4000751E05D4FFF7CAFE303262556D1EF9D50A
:100A5000B3460122084302D000227F1C04E0207824
:100A6000302801D100227F1E002A099784D01DE082
:100A7000112D07DAFFF7B2FE303262556D1C50EAD5
:100A80000102F5D1084302D00098C8B10EE0002160
:100A9000681E05E0235C625C63542254401E491CBE
:100AA0008142F7DBAB46A81B401E0990002004F8EA
:100AB0000B000B98099AC0F80880C0E9002B7AE770
:100AC00011264FF0000857E72DE9F04F88460446FD
:100AD000D21D22F0070191B0D1E90001CDE90A0150
:100AE00002F056FB02460B98C00F01D02D2007E004
:100AF0002068810701D52B2002E0202101EAC000F7
:100B0000032A099001D0072A05DB03464146204607
:100B100000F02CFB0BE12078800601D5E06900E0B5
:100B20000620B8F1650F814606D0B8F1660F18D0DF
:100B3000B8F1670F70D131E00020B9F1110F0090CA
:100B400001DB112301E009F101030AAA01A90CA8A4
:100B5000FFF7E2FEDDE90C70002609F1010583468E
:100B600047E001204B4600904FF000470AAA01A938
:100B70000CA8FFF7D1FEDDE90DB00C995D4600260B
:100B800010B909F101000D18B9EB050003D4C0F14B
:100B9000FF3609F10105A5EB09002BE0B9F1010FC2
:100BA00001DA4FF001090020B9F1110F0090484619
:100BB00001DD112300E003460AAA01A90CA8FFF7F2
:100BC000ABFEDDE90C704D46002683462078000719
:100BD0000AD4AB4500DA5D4601A8012D04DD4119B8
:100BE00011F8011C302907D04F4502DA17F1040F24
:100BF00004DA012082460FE06D1EEEE7002F02DCD2
:100C0000ED1B3E4403E0781CA84200DD7D1CB81BB0
:100C100000F1010A4FF000472078000703D4AA45ED
:100C200001DB4FF0FF3A0021B7F1004F0DF143080F
:100C30008DF8431024D002202B23002F01DA7F42AD
:100C40002D230A21021EA0F1010000DC5FB197FBF9
:100C5000F1FC97FBF1F201FB1C7C17460CF1300C08
:100C600008F801CDEEE7A8F101000370218809051D
:100C700001D5452100E06521A0F1010800F8011C23
:100C800009980FA9A1EB0807FF1D00B10120411928
:100C900001EBEA70A1693844081A401EA06120786F
:100CA000C00602D42046FFF7F2FA099828B1D4E929
:100CB00001219047206A401C20622078C00622D57E
:100CC0002046FFF7E4FA1EE0002E04DBB34502DD08
:100CD00001A8805D00E03020D4E901219047206A1E
:100CE000401C2062761CAAF101005FEA000A0AD1CA
:100CF00000F038FAC0680168405CD4E901219047EF
:100D0000206A401C2062281EA5F10105DCDC07E0FA
:100D1000D4E9012118F8010B9047206A401C206299
:100D2000381EA7F10107F3DC2046FFF7C6FA0320BF
:100D300011B041E62DE9F04F04460D46D21D22F0D8
:100D4000070089B0D0E900974846394602F020FAFA
:100D50000246F80F01D02D2307E02068810701D556
:100D60002B2302E0202101EAC0038DF820300BB1D3
:100D7000012000E00020032A824601D0072A04DB7C
:100D80002946204600F0F2F93FE12078800601D4A0
:100D90000D2500E0E569C7F30A560D2D49DA00215B
:100DA0004FEA175B08464FF00000002F00F44000A8
:100DB00007DA00EB80004FF4400100EBD07001EA4D
:100DC00060008115012901DD4FF0FF3100224FEA5B
:100DD000850CBCF1180F06D31346ACF118004FF088
:100DE0008052C24003E04FF4801323FA0CF30CF15D
:100DF0000C0CBCF1200F04D3ACF1200C09FA0CF060
:100E000001E007FA0CF000294FF0004801DD18B9A5
:100E10000FE00ED140450CD319EB02095F4121B917
:100E2000404502D19F4329EA0209BBEB175F00D07E
:100E3000761C2088000502D57B48784402E07A4879
:100E40007844193808AA302302F80A30037C0AF1E2
:100E50000101002E0AF1020A53546A4602DC4FF0E7
:100E6000300101E04FF031014FF001088DF8001022
:100E700002D0A6F2FF3603E059EA470100D06B4EDC
:100E8000002D02DC2178090704D54FF002082E213D
:100E90008DF80110C44600210BE0C7F303433F0166
:100EA000C35C491C6D1E02F80830052908F10108D1
:100EB00001DA002DF1DC00210CE000EB1973491C74
:100EC0001B786D1E082902F808304FEA091908F14D
:100ED000010801DA002DF0DC21688B0602D516E04E
:100EE000A8F10108E04505DD02EB080313F8013C19
:100EF000302BF5D0B8F1000F09DD02EB080313F831
:100F0000013C2E2B03D1090701D4A8F10108002DC3
:100F100005DD3E2102F808106D1E08F10108407C35
:100F2000002E02F8080008F1010804DA2D207642AC
:100F300002F8080002E02B2002F808000A214FF412
:100F40007A70864208F101080BDB96FBF0F3303330
:100F500002F8083096FBF0F308F1010800FB136675
:100F600001E0642E0CDB642096FBF0F3303302F8D2
:100F7000083096FBF0F308F1010800FB136601E06E
:100F80000A2E06DB96FBF1F0303002F8080008F17B
:100F9000010896FBF1F001FB1060303002F8080008
:100FA000A16908F1010808EB050202EB0A00081A22
:100FB000A0612078C00602D42046FFF768F9216AB4
:100FC00008AE01EB0A00206204E0D4E9012116F822
:100FD000010B9047BAF1010AF7D22078C00602D57A
:100FE0002046FFF754F96E4609E016F8010B3E283B
:100FF0000FD0D4E901219047206A401C2062B8F14B
:101000000108F2D22046FFF758F909B00320BDE8E5
:10101000F08F206A2844206203E0D4E901213020C7
:1010200090476D1EEBD3F8E7F229000002FCFFFFAA
:1010300001694A1C02610878704700B58FB0CDE99C
:1010400001310021059105497944CDE9031011468C
:101050006846FFF7FFFA0FB000BD0000E5FFFFFF95
:1010600010B5436913B1AFF3008001E0FFF748F911
:10107000012010BD127800F124010A7000224A708C
:101080000122EDE711684FF0FF32E9E710B543693F
:1010900013B1AFF3008001E0FFF7BEF9012010BDEE
:1010A000128800F1240182840022C2840122EDE72B
:1010B00011684FF0FF32E9E7007B00F080007047D5
:1010C0002DE9F04116460C46054600F043F803684A
:1010D00093F80101012807D0FF2C12D8185D80B1C8
:1010E00001202C70BDE8F081D3F80701324621467B
:1010F00003F20713C7182846BC46BDE8F041002399
:1011000060474FF0FF30EDE7754600F0EBF8AE4674
:1011100005006946534620F00700854618B020B503
:10112000FFF794F8BDE820404FF000064FF00007AD
:101130004FF000084FF0000BAC46ACE8C009ACE83B
:10114000C009ACE8C009ACE8C00921F007018D4630
:101150007047000010B500F005F8001D10BD00BF7D
:101160009520000000487047280000202DE9F0413C
:101170001F46044603260168072A01F4006004DBC9
:1011800008B116A505E016A503E008B115A500E015
:1011900015A521F010002060A069C01EA0610FB14C
:1011A000401EA0612046FFF772F84FB1D4E901213B
:1011B00038469047206A401C2062C01C206206E02E
:1011C000206AFAE7D4E9012115F8010B9047761E51
:1011D000F8D22046FFF771F8BDE8F0814E414E008D
:1011E0006E616E00494E4600696E66002DE9F0475B
:1011F000814616468AB0354878440DC88DE80D0002
:1012000032487844801C03AC0DC884E80D0041F6D8
:101210009B300844372190FBF1F290FBF1F5A5F1EA
:10122000800501FB12041B3C02D56442012000E052
:101230000020DFF898A080460027FA44AAF1BE0AF1
:101240000EE0E0070AD03246684607EB470101236B
:101250000AEB810101F065FE8DE8070064107F1C38
:10126000002CEED1194F7F44AE3F19E0E80715D0AE
:1012700007EB04100DF1180A90E80E008AE80E0042
:10128000C068F04201D1981908903246012306A99E
:1012900003A801F046FE03AB83E807006D10641C51
:1012A000002DE3D14FF0010332466946B8F1000F3B
:1012B00003A802D001F020FE01E001F032FEC9E9EE
:1012C0000001C9F808200AB0BDE8F087C426000074
:1012D00010B50446AFF300802046BDE81040FEF78D
:1012E0008CBF000000487047080000204FF0013C10
:1012F00050F8042B51F8043B9A4221D1A2EB0C0385
:10130000934313EACC1317D150F8042B51F8043B44
:101310009A4215D1A2EB0C03934313EACC130BD1E1
:1013200050F8042B51F8043B9A4209D1A2EB0C036C
:10133000934313EACC13DBD04FF00000704700BF9B
:10134000D01A01BAB1FA81F101F0180122FA01F0C4
:10135000CB40DBB2C0B2C01AC1F120012CFA01F3BC
:10136000D11A914311EAC311E6D1704701491820FF
:10137000ABBEFEE7260002007047000080B582B0D9
:10138000012000F0BFFB00F0E5FB012825D1FFE7BD
:101390000220042100F086F90120019000F076F986
:1013A000019800F0E5F900F0B1F9012808D1FFE754
:1013B000002000F0E9F94FF4807000F0FBF901E043
:1013C000FFE7FEE70820012100F0F6FB182000F0FF
:1013D00055F8072000F00AFC01E0FFE7FEE702B045
:1013E00080BD000080B58AB08020C2F200000121DB
:1013F000009100F0E1FB00990320ADF80C008DF89E
:1014000014008DF816108DF8150048F20000C4F293
:101410000E0003A900F050F848F20000C4F20300E7
:10142000019001F05BF801984FF4E13106916021E1
:10143000ADF81C100021ADF81E10ADF820101022E0
:10144000ADF822204FF44072ADF8242000F0E8FF00
:10145000019806A901F0AAF802900298012808D183
:10146000FFE748F20000C4F20300012101F01EF87A
:1014700001E0FFE7FEE70AB080BD000081B08DF813
:1014800003009DF8030048F20001C4F20101086066
:1014900001B0704781B08DF803009DF9031001F091
:1014A0001F02012090404A094EF20011CEF20001C5
:1014B00041F8220001B070478EB00D900C910D984C
:1014C00040680B900D9880680A900D98C06809904C
:1014D0000D98006908900D98406907900D988069F3
:1014E00006900D98C069059000200390012002909D
:1014F000032001904FF0011000900C980088049098
:10150000FFE70498002865D0FFE79DF81000C007AA
:1015100000284ED0FFE70B98029988430C998978F0
:10152000039A914008430B900A98019988430C99BB
:10153000097A039A5200914008430A900998029947
:1015400088430C99897A039A914008430990089836
:10155000009988430C99039A02F1100CCB78097911
:1015600003FA0CF318439140084308900798009938
:1015700088430C99039A02F1100C4B79897903FA8C
:101580000CF318439140084307900698019988434B
:101590000C99497A039A52009140084306900598A5
:1015A000029988430C99C979039A914008430590A0
:1015B000FFE7029840000290019880000190009897
:1015C00040000090039801300390FFE70498400822
:1015D000049096E70B980D9920F01F020023C4F2A7
:1015E0000C03994208BF104648600A980D9940F2D2
:1015F000FF3220EA0202994208BF1046886009982B
:101600000D9920F01F02994208BF1046C860089843
:101610000D9920F01F12994208BF104608610798E3
:101620000D9920F01F12994208BF10464861069894
:101630000D9902466FF30902994208BF104688616E
:1016400005980D9920F01F02994208BF1046C86105
:101650000EB0704781B0009000994FF6FF7008807F
:101660000099002088700099C8700099087100994D
:101670004871009988710099C871009908720099A1
:1016800048720099887201B07047000081B08DF8EF
:1016900003009DF803008821C4F24021086001B0D6
:1016A0007047000083B08DF80B0001910C21C4F24B
:1016B000020108680090009820F0030000909DF857
:1016C0000B20009810430090009808600421C4F299
:1016D000020108680090009820F470600090019A60
:1016E000009840EA02200090009808608820C4F228
:1016F0004020006840B1FFE78C21C4F24021012066
:10170000086000200860FFE703B0704780B584B030
:1017100000200390FFE7212000F0C8F98DF80A00AF
:10172000039801300390FFE703990020490A02293A
:10173000019007D8FFE79DF80A00B0FA80F0400951
:101740000190FFE70198C0070028E4D1FFE72120BE
:1017500000F0ACF920B1FFE701208DF80B0003E0A9
:1017600000208DF80B00FFE79DF80B0004B080BD52
:1017700081B08DF803009DF8030040F28811C4F297
:101780004021086001B0704782B08DF807000C213D
:10179000C4F2020108680090009820F0F000009068
:1017A0009DF80720009840EA021000900098086019
:1017B00002B0704782B0ADF806000C21C4F20201FD
:1017C00008680090009820F440700090BDF8062052
:1017D0000098104300900098086002B07047000025
:1017E00091B010900C20C4F202000068800700281D
:1017F00006D5FFE742F20040C0F2F4000F9005E08A
:1018000041F20020C0F27A000F90FFE70C20C4F2F2
:1018100002000068C00720B1FFE70F9840080F9052
:10182000FFE70F980E900C20C4F2020000684007FA
:1018300000280DD5FFE70420C4F202000068C0F3C1
:1018400003200130049004990E9848430E90FFE75E
:101850000C20C4F202000068C0F30120014602918E
:1018600040B1FFE7029801280BD0FFE70298022859
:1018700022D026E0109941F20020C0F27A000860E0
:1018800024E00C20C4F202000068000900070028D0
:1018900003D4FFE70E980D900AE00E980C21C4F2D5
:1018A00002010968C1F302110131C8400D90FFE740
:1018B0000D981099086009E010994FF400400860F5
:1018C00004E0109949F640400860FFE71020C4F298
:1018D000020000688007002806D5FFE742F20040BA
:1018E000C0F2F4000C9005E041F20020C0F27A0052
:1018F0000C90FFE71020C4F202000068C00720B17E
:10190000FFE70C9840080C90FFE70C980B90102014
:10191000C4F202000068400700280DD5FFE704204C
:10192000C4F202000068C0F303100130049004996F
:101930000B9848430B90FFE70B980A901020C4F2D5
:1019400002000068C006002804D5FFE70A98400896
:101950000A90FFE70A98109948601820C4F2020024
:101960000068000903909DF80C000007002806D4C9
:10197000FFE741F20020C0F27A0006900FE00398E2
:1019800000F00700411C012088400390039941F2B8
:101990000020C0F27A00B0FBF1F00690FFE7069855
:1019A0001099C8601820C4F20200006803909DF8E6
:1019B0000C000007002806D4FFE742F20040C0F206
:1019C000F40005900FE0039800F00700411C01208F
:1019D00088400390039942F20040C0F2F400B0FB4B
:1019E000F1F00590FFE70598109908611420C4F202
:1019F0000200006800F003000146019140B1FFE7DA
:101A00000198012807D0FFE70198022806D008E0D6
:101A10000F98099008E00C98099005E00E9809903D
:101A200002E00B980990FFE71420C4F2020000685E
:101A3000C0F301100146009140B1FFE70098012872
:101A400008D0FFE70098022808D00AE04FF40040D1
:101A5000089009E049F64040089005E00998089090
:101A600002E006980890FFE71420C4F20200006824
:101A7000000A03909DF80C000007002803D4FFE73C
:101A8000089807900CE0039800F00700411C012023
:101A90008840039008980399B0FBF1F00790FFE7A6
:101AA00007981099886011B07047000083B08DF8D6
:101AB0000B009DF80B0000F0E000202806D1FFE7A6
:101AC0000020C4F202000068019006E048F23C00E9
:101AD000C4F20D0000680190FFE701989DF80B101B
:101AE00001F01F01C840C00720B1FFE701208DF8B9
:101AF000030003E000208DF80300FFE79DF80300DA
:101B000003B0704782B08DF807000821C4F20201CB
:101B1000086820F0030008609DF807000146009166
:101B2000012804D0FFE70098022808D00FE0082120
:101B3000C4F20201086840F00100086008E00821D2
:101B4000C4F20201086840F00300086000E0FFE70B
:101B500002B0704780B584B000200390FFE72220D8
:101B6000FFF7A4FF8DF80A00039801300390FFE708
:101B700003990020490A0229019007D8FFE79DF840
:101B80000A00B0FA80F040090190FFE70198C00711
:101B90000028E4D1FFE72220FFF788FF20B1FFE70C
:101BA00001208DF80B0003E000208DF80B00FFE70B
:101BB0009DF80B0004B080BD82B001908DF8031039
:101BC0009DF8030040B1FFE7019A1C21C4F2020115
:101BD00008681043086007E0019A1C21C4F2020162
:101BE000086890430860FFE702B0704780B582B094
:101BF0008DF807004FF000600121FFF7DDFF48F28C
:101C00003801C4F20D01086820F03F0000909DF8F3
:101C1000070040EAC0020098104300900098086056
:101C200002B080BD80B588B00020C4F207000490E7
:101C3000002107914FF4FA72019200F0A3FB019A80
:101C400004980121039100F09DFB019A0498022160
:101C5000069100F097FB019A06990020C4F2080053
:101C6000059000F08FFB042000F00AF90498079912
:101C7000FA22029200F086FB029A0399049800F07F
:101C800081FB029A0498069900F07CFB029A059861
:101C9000069900F077FB039800F0F2F80498079A91
:101CA000114600F06FFB03990498079A00F06AFB55
:101CB00004980699079A00F065FB05980699079A1B
:101CC00000F060FB08B080BD80B5A2B044F2000017
:101CD000C0F2610001210791FFF76EFF1FA802907B
:101CE000FFF7B8FC0299079802220A928DF8842027
:101CF0008DF87E008DF886002A20ADF87C00032048
:101D00008DF8850048F20000C4F20A000190FFF748
:101D1000D3FB019802992022ADF87C20FFF7CCFB81
:101D20000020C4F20700089000F0E6FA0020C4F298
:101D30000800099000F0E0FA08980621039100F0ED
:101D400095F90399099800F091F908980421ADF8E4
:101D50003210BDF83210ADF8661041F28731ADF89F
:101D6000681000210B91ADF86C10ADF86A10ADF859
:101D70006E10ADF87010ADF87210ADF87410ADF8CB
:101D80007610ADF87810ADF87A1019A9049100F02A
:101D900087FA0499099800F083FA12A8059000F0D8
:101DA00045FA059908980B9AADF84820ADF84A20F5
:101DB000ADF85C20ADF85A20ADF85820ADF85420AD
:101DC000ADF84C20ADF84E204FF44062ADF85220F3
:101DD00000F0A0F90599079A0898ADF8482000F09E
:101DE00099F9059908980A9AADF8482000F092F9F7
:101DF0000599099800F08EF90DA8069000F0FCF9FD
:101E00000699079A08980A9BDDF82CC0ADF834C0F3
:101E1000ADF836C0ADF83830ADF83A2000F0BEF974
:101E20000699079A0898ADF8342000F0B7F906999A
:101E300008980A9AADF8342000F0B0F9069909988C
:101E400000F0ACF90799089800F010FA0799099882
:101E500000F00CFA08980B9A114600F093FA0799D3
:101E600008980B9A00F08EFA08980A990B9A00F0DD
:101E700089FA09980A990B9A00F084FA22B080BD79
:101E800082B08DF807004EF21401CEF2000141F24B
:101E9000FF10C0F27A0008604EF21801CEF2000185
:101EA000002008604EF21002CEF20002116841F0EC
:101EB00004011160116841F0010111600090FFE719
:101EC00000989DF9071001EB8101B0EB410F10DA8A
:101ED000FFE7FFE74EF21000CEF200000068C003FB
:101EE000002801D4FFE7F5E7FFE7009801300090F4
:101EF000E6E74EF21001CEF200010020086002B0C9
:101F00007047000085B00C20C4F202000068800712
:101F1000002806D5FFE742F20040C0F2F40004902A
:101F200005E041F20020C0F27A000490FFE70C20A7
:101F3000C4F202000068C00720B1FFE7049840081F
:101F40000490FFE7049803900C20C4F2020000689C
:101F5000400700280DD5FFE70420C4F20200006806
:101F6000C0F3032001300190019903984843039086
:101F7000FFE70C20C4F202000068C0F30120014614
:101F8000009140B1FFE7009801280ED0FFE70098CC
:101F900002281CD023E040F20001C2F2000141F20D
:101FA0000020C0F27A00086021E003980C21C4F2FE
:101FB00002010968C1F303110131B0FBF1F0029095
:101FC000029840F20001C2F2000108600FE040F206
:101FD0000001C2F200014FF40040086007E040F247
:101FE0000001C2F2000149F640400860FFE705B079
:101FF0007047000080B540F20000C0F600004EF6C9
:102000000851CEF2000108601C21C4F20201102028
:1020100008600C21C4F20201002008600421C4F20F
:10202000020108600821C4F2020108601021C4F214
:10203000020108601421C4F2020108601821C4F2F0
:10204000020108602021C4F2020108602421C4F2C8
:10205000020108602821C4F2020108602C21C4F2A8
:1020600002010860FFF74EFF80BD000083B00290C0
:102070008DF807102420C4F2020000680090029836
:102080000021C4F2070188420ED1FFE7009820F03A
:10209000FF0000909DF807100098084300900098FA
:1020A00040F0807000902EE0029848F20001C4F2E7
:1020B000070188420FD1FFE7009820F47F4000908D
:1020C0009DF80710009840EA01200090009840F029
:1020D0000070009016E002980021C4F208018842C6
:1020E0000FD1FFE7009820F47F0000909DF80710C3
:1020F000009840EA01400090009840F08060009015
:10210000FFE7FFE7FFE700982421C4F2020108601F
:1021100003B0704785B00490039103994888CA883A
:1021200010430A8910434A8910438A8940EA821081
:10213000CA891043098A084301900398808828B10E
:10214000FFE7019840F480700190FFE70398008852
:10215000029001980499029A01EB820108620399A6
:10216000488AC98A084300900398808A28B1FFE70B
:10217000009840F004000090FFE70398008B28B11E
:10218000FFE7009840F010000090FFE700980499E6
:10219000029A01EB8201086605B0704785B0049091
:1021A00003910399488800018A8840EA8200CA881E
:1021B00010430A8940EA02304A8940EA822089892C
:1021C00040EA012001900398008802900198049948
:1021D000029A01EB820108630399CA89088A40EADE
:1021E0000220498A0843009000980499029A01EB62
:1021F0008201086405B0704781B00090009900200A
:10220000088000994880009988800099C8800099CA
:10221000088100994881009988810099C8810099B6
:1022200008820099488201B07047000081B0009098
:1022300000990020088000994880009988800099C2
:10224000C880009908810099488100998881009987
:10225000C881009908820099488200998882009973
:10226000C88200990120088301B0704783B00290B2
:102270008DF807100298C06800909DF8070028B1FB
:10228000FFE7009840F00100009004E0009820F083
:1022900001000090FFE700980299C86003B0704702
:1022A00084B0039002910298008803990860029814
:1022B0004088039948600298808803998860029951
:1022C000C8880A8910434A8910438A891043C989FA
:1022D0000843019001980399C86002990A8A488AC4
:1022E00040EA02108A8A1043C98A08430090009885
:1022F0000399086504B0704781B0009000990020F0
:10230000C860009908600099486000998860009949
:10231000086200994862009988620099C862009931
:10232000086300994863009988630099C86300991D
:10233000086600994866009988660099C866009901
:10234000086100994861009988610099C861009905
:10235000086700994867009988670099C8670099DD
:10236000086400994864009988640099C8640099D9
:10237000086500994865009988650099C86501B0AD
:102380007047000083B002908DF80710ADF804206C
:1023900002989DF8071000EB810010300090BDF806
:1023A00004000099086003B07047000080B582B057
:1023B0000020ADF806000020C4F20300102100F058
:1023C000C5F8012819D1FFE70020C4F203000090EE
:1023D000102100F063F8009800F05EF9ADF80600F7
:1023E0009DF80600ADF806009DF8061040F2BC000E
:1023F000C2F2000000F0E6F9FFE70020C4F203009B
:10240000202100F0A3F8012807D1FFE70020C4F243
:102410000300202100F042F8FFE702B080BD000079
:1024200083B002908DF807102820C4F202000068E3
:10243000009002980021C4F2030188420ED1FFE708
:10244000009840F080700090009820F0FF0000900D
:102450009DF8071000980843009017E0029848F292
:102460000001C4F2030188420FD1FFE7009840F059
:1024700000700090009820F47F4000909DF80710B5
:10248000009840EA01200090FFE7FFE7009828212C
:10249000C4F20201086003B07047000082B00190EE
:1024A000009100980199486402B0704782B0019091
:1024B0008DF803109DF8030030B1FFE70199086B18
:1024C00040F00100086306E00199086B4FF6FE72C8
:1024D00010400863FFE702B07047000081B0009031
:1024E00000990020086300994860009908620099EB
:1024F0004862009988620099C862009A122151636B
:1025000000998863009A40F2FF71516400998864D1
:1025100000994FF44070086301B0704782B0019099
:10252000ADF8021001988069BDF80210084204D08D
:10253000FFE701208DF8010003E000208DF8010085
:10254000FFE79DF8010002B07047000082B00190E3
:10255000ADF802100198006CBDF80210084204D0DA
:10256000FFE701208DF8010003E000208DF8010055
:10257000FFE79DF8010002B07047000083B00290B1
:1025800001918DF803209DF8030030B1FFE7019A17
:102590000299886B1043886305E0019A0299886B61
:1025A00090438863FFE703B07047000080B590B0A8
:1025B0000E900D910D9880890E99086301A8FFF780
:1025C0000FF901980B902820C4F2020000680C90CB
:1025D0000E980021C4F20301884207D1FFE70C984E
:1025E00000F007010B98C8400B900FE00E9848F2DE
:1025F0000001C4F20301884207D1FFE70C98C0F341
:1026000002210B98C8400B90FFE7FFE70B980D994C
:1026100009688908B0FBF1F00990099880090890D1
:10262000099800F03F0007900B988000089A0799DE
:1026300001EB8211B0FBF1F00A900A980D9909683C
:10264000401AC001B0FBF1F006900698022805DCA4
:10265000FFE7069810F1030F04DCFFE700208DF878
:102660003F0015E008980E99486207980E99886215
:102670000D998888CA8810430A89104349890843FC
:102680000C900C980E99C86201208DF83F00FFE76E
:102690009DF83F0010B080BD81B0009000980068A8
:1026A00080B201B07047000082B001908DF8031035
:1026B0009DF803000199086002B0704780B582B0B0
:1026C00001900091FFE748F20000C4F203002021CE
:1026D000FFF724FF012801D1FFE7F4E79DF804107C
:1026E00048F20000C4F20300FFF7DEFF019802B0D9
:1026F00080BD000080B58EB04FF40010012106911E
:10270000FFF75AFA0698002104918DF82F108DF8E2
:1027100030108DF831108DF832108DF83310032100
:102720008DF834108DF835108DF836008DF82E00A8
:102730008020ADF82C0048F20000C4F20A0001909D
:102740000BA90291FEF7B8FE01980299049A8DF840
:102750002E2040220392ADF82C20FEF7ADFE039808
:102760000699FFF729FA04990020C4F203000590A6
:10277000FFF756FE0620FEF78DFE049905984FF4EC
:10278000E13207926022ADF82020ADF82210ADF8BA
:102790002410ADF826104FF44071ADF8281007A9A9
:1027A000FFF704FF069A05981021FFF7E7FE05984A
:1027B000069A2021FFF7E2FE05980699FFF776FEBC
:1027C0000EB080BD83B002908DF8071040F2FD007E
:1027D000C2F20000007801460091032800F2A780B1
:1027E0000099DFE801F0022C54629DF807002028D0
:1027F0001DDCFFE740F2FC01C2F20001002008707E
:102800009DF80700033840F2FE01C2F20001087093
:102810009DF80700C04340F2F801C2F200010880B1
:1028200040F2FD01C2F200010120087006E040F212
:10283000FD01C2F2000100200870FFE777E09DF87B
:10284000071040F2FC00C2F2000003785A1C02702C
:1028500040F2D802C2F20002D1549DF8073040F293
:10286000F802C2F200021188C91A1180007840F201
:10287000FE01C2F200010978884207D1FFE740F269
:10288000FD01C2F2000102200870FFE74FE09DF851
:10289000070040F2FA01C2F20001088040F2FD0197
:1028A000C2F200010320087041E040F2F800C2F2D9
:1028B000000000889DF8072040F2FA01C2F20001F2
:1028C000098801EB022188422AD1FFE740F2D800B3
:1028D000C2F200000078402820D1FFE701208DF8E7
:1028E0000600FFE79DF806001C2816DCFFE79DF8B0
:1028F000062040F2D800C2F200008118805C4978BE
:1029000040EA0120029902F0FE028852FFE79DF89A
:10291000060002308DF80600E4E700E0FFE7FFE77D
:1029200040F2FD01C2F2000100200870FFE703B091
:102930007047000080B58AB000200990FEF71EFDA8
:10294000FEF750FDFFF7D6FEFFF7BEF9FFF76AF975
:10295000FFE740F2BC00C2F20000069001210591A1
:1029600000F042F8014606980291022100F03CF87E
:10297000014606980391032100F036F801460698B7
:102980000491042100F030F80299039A049BEC466C
:10299000CCF8000043F6D800C0F60000FDF768FC54
:1029A0000599069800F020F8A0F57A7000F00FFD68
:1029B000002207920023C3F6D07300F01FFD079A90
:1029C00044F20003C4F26F0300F02AFC00F0D0FCD4
:1029D0000799ADF82200BDF822200020C4F20700BC
:1029E000FFF7D0FCB5E7000082B001908DF803102E
:1029F00001989DF9031030F9110002B070475FEAA9
:102A0000400C08BF91F0000F4FEA8C234FEAC1221F
:102A100043EA51514FEA1C5018BF00F5F0404FEA0D
:102A2000300018BF41F000415FEA6C5C00F0298083
:102A3000BCF1FF3F08BF40F080407047130C06BF59
:102A400012044FF0100C4FF0000C130E04BF1202D2
:102A50000CF1080C130F04BF12010CF1040C930FBE
:102A600004BF92000CF1020CD30F04BF52000CF112
:102A7000010C11464FF00002A0F11F00A0EB0C006A
:102A8000704711F0004F08BF704731F000413FF42C
:102A9000D5AF0B0C06BF09044FF0100C4FF0000C23
:102AA0000B0E04BF09020CF1080C0B0F04BF090147
:102AB0000CF1040C8B0F04BF89000CF1020CCB0F3E
:102AC00004BF49000CF1010CCCF1200322FA03F3FE
:102AD00041EA030102FA0CF2A0EB0C0000F1010044
:102AE0007047000023F07F4720F07F4C80EA03000E
:102AF00000F00040ACEB070303F57C5303F1FF0348
:102B00002DE9804909B44FEA144324EA03484FEA07
:102B1000154B25EA0B4E0FF2042606EB13273E78E1
:102B200003FB0667C7F5000707FB06F64FEAD64624
:102B300006F102064FEA543707FB066CCCF1005C45
:102B40004FEA1C472CEA074C0CFB06F507FB06F482
:102B500004EB15464FEA961649085FEA320234BF85
:102B600000204FF000404FEAD13706FB07FC4FEA48
:102B70001C4C0CFB0BF7D21B03FB0CF761EB0701A2
:102B80000CFB0EF7B0EB074072EB17420CFB08F79B
:102B900034BFA2EB0742B2EB074261EB17414FEAA9
:102BA0000C444FEA910706FB07FC4FEA1C4C0CFB58
:102BB0000BF7B0EBC74072EB573203FB0CF734BF97
:102BC000A2EBC742B2EBC74261EB57310CFB0EF7E9
:102BD000B0EBC70072EB57720CFB08F734BFA2EBE7
:102BE000C702B2EBC70261EB57714FEA816141EA5C
:102BF00092114FEA826242EA90124FEA806004EB3F
:102C0000CC04039F4FEAD13706FB07FC4FEA1C4C6C
:102C10000CFB0BF7D21B03FB0CF761EB07010CFB62
:102C20000EF7B0EB074072EB17420CFB08F734BF0E
:102C3000A2EB0742B2EB074261EB17414FEA8C551A
:102C400004EB9C244FEA910706FB07FC4FEA1C4C5F
:102C50000CFB0BF7B0EBC74072EB573203FB0CF7E2
:102C600034BFA2EBC742B2EBC74261EB57310CFB5A
:102C70000EF7B0EBC70072EB57720CFB08F734BFCE
:102C8000A2EBC702B2EBC70261EB57714FEA816159
:102C900041EA92114FEA826242EA90124FEA806062
:102CA00015EB4C2544F100044FEAD13706FB07FC35
:102CB0004FEA1C4C0CFB0BF7D21B03FB0CF761EB30
:102CC00007010CFB0EF7B0EB074072EB17420CFB51
:102CD00008F734BFA2EB0742B2EB074261EB1741A2
:102CE0004FEA813141EA92414FEA823242EA904210
:102CF0004FEA80304FEA0C7615EB1C1544F10004C6
:102D000048EA03434EEA0B484FF0000EB2EB080CC2
:102D100071EB030724BF624639464EEB0E0E4FF0AF
:102D2000000B0018524149414BEB0B0BB2EB080C66
:102D300071EB03077BF1000B24BF624639464EEB73
:102D40000E0E4FF0000B0018524149414BEB0B0B9C
:102D5000B2EB080C71EB03077BF1000B24BF62465A
:102D600039464EEB0E0E51EA020718BF46F0010637
:102D700016EB0E7655F1000254F1000103D5BDE8C3
:102D80008901BDE80088BDE88901BDE80048B619A1
:102D9000524141EB0101A3F10103704780807F7E26
:102DA0007D7C7B7A797877767675747372717170C1
:102DB0006F6E6E6D6C6C6B6A6A6968686766666573
:102DC0006464636362616160605F5F5E5E5D5D5C01
:102DD0005C5B5B5A5A595958585757565655555572
:102DE0005454535352525251515050504F4F4F4ED2
:102DF0004E4D4D4D4C4C4C4B4B4B4A4A4A49494920
:102E00004848484747474746464645454544444461
:102E10004443434343424242424141419C46002B8A
:102E200030D477002BD04FEA37071CB503B44FF0EE
:102E300010004FF01001BAF1000F06D0BCF1000FE6
:102E4000DCBF40F0080040F008014FF000000FBC6C
:102E5000BDE810400BF1010BBBF1010F08BF5FEAA9
:102E6000170722BF12F1010211F101014FF00041D9
:102E700043F1000300F0004043EA00007047F9D33B
:102E80005708D0E746EA06464FEA164613F1400FC8
:102E90001FDD13F1200FDFBF16430A460021203348
:102EA0005B42BED0C3F1200746EA06464FEA16460B
:102EB00002FA07F746EA070622FA03F2C3F12007EF
:102EC00001FA07F742EA070221FA03F14FF0000383
:102ED000A7E746EA020646EA06464FEA164646EAEB
:102EE0000106BCBF46EA0646360C4FF000034FF021
:102EF00000024FF0000194E72DE9804C70B49A462F
:102F0000934691E8380007C831EA400C48BF34EADC
:102F1000430C03D5FFF7E6FDFFF780FFF0BCBDE8EB
:102F2000008C2DE9804C70B49A46934691E83800A5
:102F300007C810F0804F08BF13F0804F03D100F096
:102F400005F8FFF76BFFF0BCBDE8008C20F07F4771
:102F500023F07F4C80EA030000F0004007EB0C03F5
:102F6000A3F57C53A3F1FE0392F0000F00F0B380B1
:102F700095F0000F00F077802DE901494FEA1140EC
:102F800021EA00484FEA144624EA064700FB06FC03
:102F900008FB06F607FB08F818EB06484CEB164C46
:102FA00000FB07F718EB07484CEB17404FEA124BB2
:102FB00022EA0B4E4FEA154625EA06470BFB06FCB4
:102FC0000EFB06F607FB0EFE1EEB064E4CEB164CF8
:102FD0000BFB07F71EEB074E4CEB174B18EB0B08E0
:102FE00040F1000018EB0E0B58EB000840F1000018
:102FF0008F1A4FF000014FF000063CBFC943661B1B
:1030000014BFB5EB040C00213CBFC943F61B4FEACB
:10301000174427EA04454FEA1C472CEA074C04FBF7
:10302000076205FB07F70CFB05F616EB074642EBBC
:10303000174204FB0CFC16EB0C4642EB1C421BEB4C
:10304000060658EB020241414EEA8E0E46EA9E0603
:1030500001D5BDE80189B619524141EB0101A3F147
:103060000103BDE801894FEA144524EA05464FEA09
:10307000114721EA074C05FB07F406FB07F70CFB99
:1030800006F111EB074144EB174405FB0CFC11EB77
:103090000C4144EB1C444FEA124722EA074C05FB63
:1030A00007F206FB07F70CFB06F616EB074642EBAA
:1030B000174205FB0CFC16EB0C4642EB1C456A184C
:1030C00054F1000148BF7047B619524141EB01016C
:1030D000A3F10103704795F0000F37D04FEA11427A
:1030E00021EA02464FEA144724EA074C02FB07F1A3
:1030F00006FB07F70CFB06F414EB074441EB174102
:1031000002FB0CFC14EB0C4441EB1C414FEA15474D
:1031100025EA074C02FB07F506FB07F70CFB06F652
:1031200016EB074645EB174502FB0CFC16EB0C466D
:1031300045EB1C42121951F1000148BF7047B61906
:10314000524141EB0101A3F1010370474FEA1445DD
:1031500024EA05464FEA114721EA074C05FB07F12F
:1031600006FB07F70CFB06F212EB074241EB174197
:1031700005FB0CFC12EB0C4251EB1C414FF000061E
:1031800048BF7047921841EB0101A3F1010370475A
:10319000490050EAC12018BF04204A0D18BF40F072
:1031A000010040F2FF72B2EB515F08BF40F0020035
:1031B000012808BF0520704730380A2801D20120B5
:1031C000704700207047000010B500290AD0087829
:1031D000002807D005487844FEF788F8002801D079
:1031E000002010BD0248784410BD000032070000E6
:1031F0002A07000010B500290AD00878002807D057
:1032000005487844FEF772F8002801D0002010BD70
:103210000248784410BD0000220700001A07000091
:1032200010B591EA030F48BF83F0004300F1EC8131
:10323000841A71EB030C05D2121943EB0C03001B2B
:1032400061EB0C014FEA1154A4EB135CDFF81CE1B5
:103250001EEA430F18BF9EEA445F00F0748021EA23
:10326000045123EA0E0343F48013DCF1200E32D321
:1032700022FA0CFE10EB0E0023FA0CFE41EB0E01BD
:10328000CCF1200E03FA0EFE10EB0E00CCF1200E56
:1032900051F10001B1F5801F32D201EB045112FA55
:1032A0000EF2BDE8104058BF7047401C38BF5FEABF
:1032B000420218BF7047002814BF20F0010041F1FE
:1032C00000014FEA410313F5001F38BF7047A1F119
:1032D000C04100F08BB9012A43EB0302ACF1200C92
:1032E000DCF11F0E32BF4FF0000E23FA0CF310EB8F
:1032F000030041EB0451B4EB115FD0D0A1EB0451BA
:1033000001F58011490801EB04515FEA30000ED34A
:1033100050F1000038BF12FA0EFE08D1BDE810408F
:10332000C9E7401C38BF5FEA4202CAD1C3E7BDE823
:1033300010404FEA410313F5001F38BF7047A1F159
:10334000C04100F053B99EEA445F08D011EA5E0F15
:10335000BDE8104004BF01F0004100207047BDE807
:10336000104070B500F0F4F864FBBE3E0000E0FFD2
:103370004FEA41034FEA5353A3F58063D3F11E0391
:10338000C8BFD3F1210C0CDD4FF0004242EAC1224C
:1033900042EA505232FA03FC8CEAE17CACEBE17079
:1033A0007047102BC4BF0020704703F5787CBCF138
:1033B000FF3F04D06FF0004282EA2100704770B5F1
:1033C00000F0C6F84992248000207047F2E710F020
:1033D000004248BF4042B0FA80F310FA03F10AD02D
:1033E000C3F11D0303F5806302EB03524FEA415022
:1033F00002EBD12170474FF00000704770B5DFF845
:1034000048C11CEA111E1EBF1CEA13159EEA0C0FD0
:1034100095EA0C0F00F06F8081EA03044EEAD47E37
:10342000AE4421EA4C1123EA4C1341F4801143F4D9
:103430008013AEF17F7EA1FB024CA0FB0365361921
:1034400055EB0C05A1FB034C4CF10003A0FB021C47
:1034500016EB0C06654153F10003094218BF46F014
:10346000010613F4007F0BD14FEA03314FEA053018
:1034700041EA155140EA165034036FF003020AE0A6
:103480004FEAC3214FEAC52041EA555140EA565060
:10349000F4026FF0020202EB2E4201EB025585EAC4
:1034A000CE710AD05FEA440C18BF24F0004450F1FA
:1034B000000041F1000120EAD47040F2FE7C624538
:1034C00000D270BDA84214BF4FF080444FF040447A
:1034D000002E08BF0024BEF1806FA8BFA1F1C0413B
:1034E000BDE8704080F2828001F1C04101F00041EE
:1034F0004FF0000070470CEA13159EEA0C0F18BF3E
:1035000095EA0C0F06D081EA030E4FF000000EF092
:10351000004170BD00F01CF88900013E00F007B8C2
:1035200000F009B84FEA430C5FEA5C5C08D081EA1E
:10353000030100F05BB84FEA410C5FEA5C5CF6D136
:1035400002494FF0000070470000FF070000F87FBD
:103550000EF1020E2EF0030E5EF8046B364205D417
:10356000012A43EB030515F5001F12D8012841EB92
:10357000010C1CF5001F0CD80ED14FEAD17C0CEBCE
:103580004C0C0CF1020C15F5001F08BF4CEBD37C62
:1035900004E04FF0080C01E04FEAD37C0CEB4C0543
:1035A00026FA05F606F00706B6F1040C06D20EEB75
:1035B000860CBDE870404CF0010C6047DFE80CF071
:1035C000090B02024FF00041A1F500214FF000006D
:1035D00070BD19461046012851EB010418BFD4F5FF
:1035E000001484BF002001F0004170BD0808A0F560
:1035F00000114FEA3101704710B591EA030F48BF3F
:1036000083F000433FF514AE841A71EB030C07D22C
:103610008CF0004C121943EB0C03001B61EB0C0106
:103620004FEA1154A4EB135CDFF8A4E11EEA430F48
:1036300018BF9EEA445F00F0B48021EA045123EAF7
:103640006E035242C3EB6E0338BF5B1EDCF1200EEB
:1036500025D322FA0CFE10EB0E0043FA0CFE41EBD0
:103660000E01CCF1200E03FA0EFE10EB0E00CCF191
:10367000200E51F1000129D401EB045112FA0EF28F
:10368000BDE8104058BF7047401C1CBFB2F1004F4E
:10369000704700280CBF491C20F00100704712EB56
:1036A000020E43EB030218BF4FF0010E4EEA420236
:1036B000ACF1200CDCF11E0E56D943FA0CFE10EBD7
:1036C0000E00CCF11E0E51F1FF31D5D50EF1010ED9
:1036D00012FA0EFE404141EB010101EB445C5FEA4E
:1036E0005C5C10D901EB045110EBDE7038BFBEF109
:1036F000004FBDE8104018BF704700280CBF491CA0
:1037000020F00100704734D24FEAD42C24F4006436
:1037100011F500111BD0B1FA81F20B3AA41AA41EC4
:10372000D2F12003914030FA03F31943904001EBAA
:10373000CC7101EB0451002CBDE81040A8BF7047CC
:1037400001F1C04101F000414FF000007047B0FAB4
:1037500080F310FA03F102D1BDE810407047E41A7B
:10376000173C4805C90AE2E701EB0451BDE81040E7
:10377000704749104FEA300001EB0451BDE810409A
:1037800002E04FF0000170474A0008BF0042F8D045
:10379000B2F5001F28BF704701F000414FF0000054
:1037A00070479EEA445F07D011EA5E0FBDE8104003
:1037B00004BF002100207047BDE8104070B5FFF73E
:1037C000C7FE00BF40DFF63E104683F00041704761
:1037D0000000E0FFFDF778B9FDF7ACBA000000008B
:1037E0000000000030313233343536373839414249
:1037F0004344454640305800303132333435363753
:1038000038396162636465664030780004000008FE
:103810000000000000000002000100001030313202
:1038200033343536373839616263646566787000E1
:1038300030313233343536373839414243444546E6
:103840005850000002400000000000A000000000EE
:1038500005400000000000C8000000000C4000000F
:103860000000409C00000000194000000020BCBE89
:103870000000000034400000BFC91B8E000000049F
:10388000B5400000504BCFD06607E2CF01000000EA
:103890006C4100003E8251AADFEEA7340100000017
:1038A000D9420000DCB5A0E23A301F97FFFFFFFFCE
:1038B000B4450000FD25A0C8E9A3C14FFFFFFFFFED
:1038C000FF3F00000000008000000000FF3F0000FC
:1038D000000000800000000025642C2025642C20BE
:1038E00025642C2025640A00343A000800000020DA
:1038F00004000000FC000008383A0008080000201E
:10390000F8060000180100081C0000004300000039
:10391000F8FFFFFF0C0000000E0000000F00000089
:103920002E0000001001000043000000F8FFFFFF20
:1039300000404040404040404040414141414140C2
:103940004040404040404040404040404040404077
:103950004005020202020202020202020202020206
:10396000022020202020202020202002020202020B
:103970000202909090909090101010101010101063
:10398000101010101010101010101010020202026F
:1039900002028888888888880808080808080808B3
:1039A00008080808080808080808080802020202AF
:1039B00040000000000000000000000000000000C7
:1039C00000000000000000000000000000000000F7
:1039D00000000000000000000000000000000000E7
:1039E00000000000000000000000000000000000D7
:1039F00000000000000000000000000000000000C7
:103A000000000000000000000000000000000000B6
:103A100000000000000000000000000000000000A6
:103A20000000000000000000000000000000000096
:083A30000000000000127A0002
:0400000508000209E4
:00000001FF
